{
  "_format": "hh-sol-artifact-1",
  "contractName": "SourabhToken",
  "sourceName": "client/contract/token.sol",
  "abi": [
    {
      "inputs": [
        {
          "internalType": "uint256",
          "name": "_voteTime",
          "type": "uint256"
        },
        {
          "internalType": "uint256",
          "name": "_quorum",
          "type": "uint256"
        }
      ],
      "stateMutability": "nonpayable",
      "type": "constructor"
    },
    {
      "inputs": [
        {
          "internalType": "address",
          "name": "spender",
          "type": "address"
        },
        {
          "internalType": "uint256",
          "name": "allowance",
          "type": "uint256"
        },
        {
          "internalType": "uint256",
          "name": "needed",
          "type": "uint256"
        }
      ],
      "name": "ERC20InsufficientAllowance",
      "type": "error"
    },
    {
      "inputs": [
        {
          "internalType": "address",
          "name": "sender",
          "type": "address"
        },
        {
          "internalType": "uint256",
          "name": "balance",
          "type": "uint256"
        },
        {
          "internalType": "uint256",
          "name": "needed",
          "type": "uint256"
        }
      ],
      "name": "ERC20InsufficientBalance",
      "type": "error"
    },
    {
      "inputs": [
        {
          "internalType": "address",
          "name": "approver",
          "type": "address"
        }
      ],
      "name": "ERC20InvalidApprover",
      "type": "error"
    },
    {
      "inputs": [
        {
          "internalType": "address",
          "name": "receiver",
          "type": "address"
        }
      ],
      "name": "ERC20InvalidReceiver",
      "type": "error"
    },
    {
      "inputs": [
        {
          "internalType": "address",
          "name": "sender",
          "type": "address"
        }
      ],
      "name": "ERC20InvalidSender",
      "type": "error"
    },
    {
      "inputs": [
        {
          "internalType": "address",
          "name": "spender",
          "type": "address"
        }
      ],
      "name": "ERC20InvalidSpender",
      "type": "error"
    },
    {
      "inputs": [
        {
          "internalType": "address",
          "name": "owner",
          "type": "address"
        }
      ],
      "name": "OwnableInvalidOwner",
      "type": "error"
    },
    {
      "inputs": [
        {
          "internalType": "address",
          "name": "account",
          "type": "address"
        }
      ],
      "name": "OwnableUnauthorizedAccount",
      "type": "error"
    },
    {
      "anonymous": false,
      "inputs": [
        {
          "indexed": true,
          "internalType": "address",
          "name": "owner",
          "type": "address"
        },
        {
          "indexed": true,
          "internalType": "address",
          "name": "spender",
          "type": "address"
        },
        {
          "indexed": false,
          "internalType": "uint256",
          "name": "value",
          "type": "uint256"
        }
      ],
      "name": "Approval",
      "type": "event"
    },
    {
      "anonymous": false,
      "inputs": [
        {
          "indexed": true,
          "internalType": "address",
          "name": "previousOwner",
          "type": "address"
        },
        {
          "indexed": true,
          "internalType": "address",
          "name": "newOwner",
          "type": "address"
        }
      ],
      "name": "OwnershipTransferred",
      "type": "event"
    },
    {
      "anonymous": false,
      "inputs": [
        {
          "indexed": true,
          "internalType": "address",
          "name": "from",
          "type": "address"
        },
        {
          "indexed": true,
          "internalType": "address",
          "name": "to",
          "type": "address"
        },
        {
          "indexed": false,
          "internalType": "uint256",
          "name": "value",
          "type": "uint256"
        }
      ],
      "name": "Transfer",
      "type": "event"
    },
    {
      "inputs": [
        {
          "internalType": "address",
          "name": "_address",
          "type": "address"
        }
      ],
      "name": "addAuthorised",
      "outputs": [],
      "stateMutability": "nonpayable",
      "type": "function"
    },
    {
      "inputs": [
        {
          "internalType": "address",
          "name": "owner",
          "type": "address"
        },
        {
          "internalType": "address",
          "name": "spender",
          "type": "address"
        }
      ],
      "name": "allowance",
      "outputs": [
        {
          "internalType": "uint256",
          "name": "",
          "type": "uint256"
        }
      ],
      "stateMutability": "view",
      "type": "function"
    },
    {
      "inputs": [
        {
          "internalType": "address",
          "name": "spender",
          "type": "address"
        },
        {
          "internalType": "uint256",
          "name": "value",
          "type": "uint256"
        }
      ],
      "name": "approve",
      "outputs": [
        {
          "internalType": "bool",
          "name": "",
          "type": "bool"
        }
      ],
      "stateMutability": "nonpayable",
      "type": "function"
    },
    {
      "inputs": [
        {
          "internalType": "address",
          "name": "",
          "type": "address"
        }
      ],
      "name": "authorised",
      "outputs": [
        {
          "internalType": "bool",
          "name": "",
          "type": "bool"
        }
      ],
      "stateMutability": "view",
      "type": "function"
    },
    {
      "inputs": [
        {
          "internalType": "address",
          "name": "account",
          "type": "address"
        }
      ],
      "name": "balanceOf",
      "outputs": [
        {
          "internalType": "uint256",
          "name": "",
          "type": "uint256"
        }
      ],
      "stateMutability": "view",
      "type": "function"
    },
    {
      "inputs": [
        {
          "internalType": "address",
          "name": "_to",
          "type": "address"
        },
        {
          "internalType": "uint256",
          "name": "amount",
          "type": "uint256"
        }
      ],
      "name": "burnToken",
      "outputs": [],
      "stateMutability": "nonpayable",
      "type": "function"
    },
    {
      "inputs": [
        {
          "internalType": "string",
          "name": "_description",
          "type": "string"
        }
      ],
      "name": "createProposal",
      "outputs": [],
      "stateMutability": "nonpayable",
      "type": "function"
    },
    {
      "inputs": [],
      "name": "decimals",
      "outputs": [
        {
          "internalType": "uint8",
          "name": "",
          "type": "uint8"
        }
      ],
      "stateMutability": "view",
      "type": "function"
    },
    {
      "inputs": [
        {
          "internalType": "uint256",
          "name": "_proposalId",
          "type": "uint256"
        }
      ],
      "name": "executeProposal",
      "outputs": [],
      "stateMutability": "nonpayable",
      "type": "function"
    },
    {
      "inputs": [
        {
          "internalType": "address",
          "name": "_address",
          "type": "address"
        }
      ],
      "name": "isAuthorised",
      "outputs": [
        {
          "internalType": "bool",
          "name": "",
          "type": "bool"
        }
      ],
      "stateMutability": "view",
      "type": "function"
    },
    {
      "inputs": [
        {
          "internalType": "address",
          "name": "",
          "type": "address"
        },
        {
          "internalType": "uint256",
          "name": "",
          "type": "uint256"
        }
      ],
      "name": "isVoted",
      "outputs": [
        {
          "internalType": "bool",
          "name": "",
          "type": "bool"
        }
      ],
      "stateMutability": "view",
      "type": "function"
    },
    {
      "inputs": [
        {
          "internalType": "address",
          "name": "_to",
          "type": "address"
        },
        {
          "internalType": "uint256",
          "name": "amount",
          "type": "uint256"
        }
      ],
      "name": "mintToken",
      "outputs": [],
      "stateMutability": "nonpayable",
      "type": "function"
    },
    {
      "inputs": [],
      "name": "name",
      "outputs": [
        {
          "internalType": "string",
          "name": "",
          "type": "string"
        }
      ],
      "stateMutability": "view",
      "type": "function"
    },
    {
      "inputs": [
        {
          "internalType": "address",
          "name": "",
          "type": "address"
        }
      ],
      "name": "numOfTokens",
      "outputs": [
        {
          "internalType": "uint256",
          "name": "",
          "type": "uint256"
        }
      ],
      "stateMutability": "view",
      "type": "function"
    },
    {
      "inputs": [],
      "name": "owner",
      "outputs": [
        {
          "internalType": "address",
          "name": "",
          "type": "address"
        }
      ],
      "stateMutability": "view",
      "type": "function"
    },
    {
      "inputs": [
        {
          "internalType": "uint256",
          "name": "",
          "type": "uint256"
        }
      ],
      "name": "proposals",
      "outputs": [
        {
          "internalType": "uint256",
          "name": "id",
          "type": "uint256"
        },
        {
          "internalType": "string",
          "name": "description",
          "type": "string"
        },
        {
          "internalType": "uint256",
          "name": "votes",
          "type": "uint256"
        },
        {
          "internalType": "uint256",
          "name": "end",
          "type": "uint256"
        },
        {
          "internalType": "bool",
          "name": "isExecuted",
          "type": "bool"
        }
      ],
      "stateMutability": "view",
      "type": "function"
    },
    {
      "inputs": [
        {
          "internalType": "address",
          "name": "_address",
          "type": "address"
        }
      ],
      "name": "removeAuthorised",
      "outputs": [],
      "stateMutability": "nonpayable",
      "type": "function"
    },
    {
      "inputs": [],
      "name": "renounceOwnership",
      "outputs": [],
      "stateMutability": "nonpayable",
      "type": "function"
    },
    {
      "inputs": [],
      "name": "symbol",
      "outputs": [
        {
          "internalType": "string",
          "name": "",
          "type": "string"
        }
      ],
      "stateMutability": "view",
      "type": "function"
    },
    {
      "inputs": [],
      "name": "totalSupply",
      "outputs": [
        {
          "internalType": "uint256",
          "name": "",
          "type": "uint256"
        }
      ],
      "stateMutability": "view",
      "type": "function"
    },
    {
      "inputs": [
        {
          "internalType": "address",
          "name": "to",
          "type": "address"
        },
        {
          "internalType": "uint256",
          "name": "value",
          "type": "uint256"
        }
      ],
      "name": "transfer",
      "outputs": [
        {
          "internalType": "bool",
          "name": "",
          "type": "bool"
        }
      ],
      "stateMutability": "nonpayable",
      "type": "function"
    },
    {
      "inputs": [
        {
          "internalType": "address",
          "name": "from",
          "type": "address"
        },
        {
          "internalType": "address",
          "name": "to",
          "type": "address"
        },
        {
          "internalType": "uint256",
          "name": "value",
          "type": "uint256"
        }
      ],
      "name": "transferFrom",
      "outputs": [
        {
          "internalType": "bool",
          "name": "",
          "type": "bool"
        }
      ],
      "stateMutability": "nonpayable",
      "type": "function"
    },
    {
      "inputs": [
        {
          "internalType": "address",
          "name": "newOwner",
          "type": "address"
        }
      ],
      "name": "transferOwnership",
      "outputs": [],
      "stateMutability": "nonpayable",
      "type": "function"
    },
    {
      "inputs": [
        {
          "internalType": "uint256",
          "name": "_proposalId",
          "type": "uint256"
        }
      ],
      "name": "voteProposal",
      "outputs": [],
      "stateMutability": "nonpayable",
      "type": "function"
    }
  ],
  "bytecode": "0x608060405260016007553480156200001657600080fd5b5060405162002e2e38038062002e2e83398181016040528101906200003c9190620005ad565b336040518060400160405280600781526020017f536f7572616268000000000000000000000000000000000000000000000000008152506040518060400160405280600281526020017f53500000000000000000000000000000000000000000000000000000000000008152508160039081620000ba919062000864565b508060049081620000cc919062000864565b505050600073ffffffffffffffffffffffffffffffffffffffff168173ffffffffffffffffffffffffffffffffffffffff1603620001445760006040517f1e4fbdf70000000000000000000000000000000000000000000000000000000081526004016200013b919062000990565b60405180910390fd5b6200015581620001ea60201b60201c565b506200017133683635c9adc5dea00000620002b060201b60201c565b6006339080600181540180825580915050600190039060005260206000200160009091909190916101000a81548173ffffffffffffffffffffffffffffffffffffffff021916908373ffffffffffffffffffffffffffffffffffffffff1602179055508160088190555080600981905550505062000a82565b6000600560009054906101000a900473ffffffffffffffffffffffffffffffffffffffff16905081600560006101000a81548173ffffffffffffffffffffffffffffffffffffffff021916908373ffffffffffffffffffffffffffffffffffffffff1602179055508173ffffffffffffffffffffffffffffffffffffffff168173ffffffffffffffffffffffffffffffffffffffff167f8be0079c531659141344cd1fd0a4f28419497f9722a3daafe3b4186f6b6457e060405160405180910390a35050565b600073ffffffffffffffffffffffffffffffffffffffff168273ffffffffffffffffffffffffffffffffffffffff1603620003255760006040517fec442f050000000000000000000000000000000000000000000000000000000081526004016200031c919062000990565b60405180910390fd5b62000339600083836200033d60201b60201c565b5050565b600073ffffffffffffffffffffffffffffffffffffffff168373ffffffffffffffffffffffffffffffffffffffff160362000393578060026000828254620003869190620009dc565b9250508190555062000469565b60008060008573ffffffffffffffffffffffffffffffffffffffff1673ffffffffffffffffffffffffffffffffffffffff1681526020019081526020016000205490508181101562000422578381836040517fe450d38c000000000000000000000000000000000000000000000000000000008152600401620004199392919062000a28565b60405180910390fd5b8181036000808673ffffffffffffffffffffffffffffffffffffffff1673ffffffffffffffffffffffffffffffffffffffff16815260200190815260200160002081905550505b600073ffffffffffffffffffffffffffffffffffffffff168273ffffffffffffffffffffffffffffffffffffffff1603620004b4578060026000828254039250508190555062000501565b806000808473ffffffffffffffffffffffffffffffffffffffff1673ffffffffffffffffffffffffffffffffffffffff168152602001908152602001600020600082825401925050819055505b8173ffffffffffffffffffffffffffffffffffffffff168373ffffffffffffffffffffffffffffffffffffffff167fddf252ad1be2c89b69c2b068fc378daa952ba7f163c4a11628f55a4df523b3ef8360405162000560919062000a65565b60405180910390a3505050565b600080fd5b6000819050919050565b620005878162000572565b81146200059357600080fd5b50565b600081519050620005a7816200057c565b92915050565b60008060408385031215620005c757620005c66200056d565b5b6000620005d78582860162000596565b9250506020620005ea8582860162000596565b9150509250929050565b600081519050919050565b7f4e487b7100000000000000000000000000000000000000000000000000000000600052604160045260246000fd5b7f4e487b7100000000000000000000000000000000000000000000000000000000600052602260045260246000fd5b600060028204905060018216806200067657607f821691505b6020821081036200068c576200068b6200062e565b5b50919050565b60008190508160005260206000209050919050565b60006020601f8301049050919050565b600082821b905092915050565b600060088302620006f67fffffffffffffffffffffffffffffffffffffffffffffffffffffffffffffffff82620006b7565b620007028683620006b7565b95508019841693508086168417925050509392505050565b6000819050919050565b6000620007456200073f620007398462000572565b6200071a565b62000572565b9050919050565b6000819050919050565b620007618362000724565b6200077962000770826200074c565b848454620006c4565b825550505050565b600090565b6200079062000781565b6200079d81848462000756565b505050565b5b81811015620007c557620007b960008262000786565b600181019050620007a3565b5050565b601f8211156200081457620007de8162000692565b620007e984620006a7565b81016020851015620007f9578190505b620008116200080885620006a7565b830182620007a2565b50505b505050565b600082821c905092915050565b6000620008396000198460080262000819565b1980831691505092915050565b600062000854838362000826565b9150826002028217905092915050565b6200086f82620005f4565b67ffffffffffffffff8111156200088b576200088a620005ff565b5b6200089782546200065d565b620008a4828285620007c9565b600060209050601f831160018114620008dc5760008415620008c7578287015190505b620008d3858262000846565b86555062000943565b601f198416620008ec8662000692565b60005b828110156200091657848901518255600182019150602085019450602081019050620008ef565b8683101562000936578489015162000932601f89168262000826565b8355505b6001600288020188555050505b505050505050565b600073ffffffffffffffffffffffffffffffffffffffff82169050919050565b600062000978826200094b565b9050919050565b6200098a816200096b565b82525050565b6000602082019050620009a760008301846200097f565b92915050565b7f4e487b7100000000000000000000000000000000000000000000000000000000600052601160045260246000fd5b6000620009e98262000572565b9150620009f68362000572565b925082820190508082111562000a115762000a10620009ad565b5b92915050565b62000a228162000572565b82525050565b600060608201905062000a3f60008301866200097f565b62000a4e602083018562000a17565b62000a5d604083018462000a17565b949350505050565b600060208201905062000a7c600083018462000a17565b92915050565b61239c8062000a926000396000f3fe608060405234801561001057600080fd5b50600436106101585760003560e01c806376987632116100c3578063a9059cbb1161007c578063a9059cbb146103dd578063c86539a31461040d578063d1df306c14610429578063d6eb1bbf14610445578063dd62ed3e14610475578063f2fde38b146104a557610158565b8063769876321461031d57806379c6506814610339578063807896d5146103555780638da5cb5b146103715780638ee36f051461038f57806395d89b41146103bf57610158565b8063313ce56711610115578063313ce56714610249578063444ed2261461026757806349c2a1a61461029757806351b699cd146102b357806370a08231146102e3578063715018a61461031357610158565b8063013cf08b1461015d57806306fdde0314610191578063095ea7b3146101af5780630d61b519146101df57806318160ddd146101fb57806323b872dd14610219575b600080fd5b610177600480360381019061017291906117ec565b6104c1565b6040516101889594939291906118d3565b60405180910390f35b61019961058c565b6040516101a6919061192d565b60405180910390f35b6101c960048036038101906101c491906119ad565b61061e565b6040516101d691906119ed565b60405180910390f35b6101f960048036038101906101f491906117ec565b610641565b005b61020361075e565b6040516102109190611a08565b60405180910390f35b610233600480360381019061022e9190611a23565b610768565b60405161024091906119ed565b60405180910390f35b610251610797565b60405161025e9190611a92565b60405180910390f35b610281600480360381019061027c9190611aad565b6107a0565b60405161028e9190611a08565b60405180910390f35b6102b160048036038101906102ac9190611c0f565b6107b8565b005b6102cd60048036038101906102c89190611aad565b610881565b6040516102da91906119ed565b60405180910390f35b6102fd60048036038101906102f89190611aad565b6108d7565b60405161030a9190611a08565b60405180910390f35b61031b61091f565b005b61033760048036038101906103329190611aad565b610933565b005b610353600480360381019061034e91906119ad565b610996565b005b61036f600480360381019061036a91906117ec565b610a29565b005b610379610c82565b6040516103869190611c67565b60405180910390f35b6103a960048036038101906103a491906119ad565b610cac565b6040516103b691906119ed565b60405180910390f35b6103c7610cdb565b6040516103d4919061192d565b60405180910390f35b6103f760048036038101906103f291906119ad565b610d6d565b60405161040491906119ed565b60405180910390f35b61042760048036038101906104229190611aad565b610d90565b005b610443600480360381019061043e91906119ad565b610df3565b005b61045f600480360381019061045a9190611aad565b610e86565b60405161046c91906119ed565b60405180910390f35b61048f600480360381019061048a9190611c82565b610ea6565b60405161049c9190611a08565b60405180910390f35b6104bf60048036038101906104ba9190611aad565b610f2d565b005b600a6020528060005260406000206000915090508060000154908060010180546104ea90611cf1565b80601f016020809104026020016040519081016040528092919081815260200182805461051690611cf1565b80156105635780601f1061053857610100808354040283529160200191610563565b820191906000526020600020905b81548152906001019060200180831161054657829003601f168201915b5050505050908060020154908060030154908060040160009054906101000a900460ff16905085565b60606003805461059b90611cf1565b80601f01602080910402602001604051908101604052809291908181526020018280546105c790611cf1565b80156106145780601f106105e957610100808354040283529160200191610614565b820191906000526020600020905b8154815290600101906020018083116105f757829003601f168201915b5050505050905090565b600080610629610fb3565b9050610636818585610fbb565b600191505092915050565b610649610fcd565b60001515600a600083815260200190815260200160002060040160009054906101000a900460ff161515146106b3576040517f08c379a00000000000000000000000000000000000000000000000000000000081526004016106aa90611d94565b60405180910390fd5b6009546106be61075e565b6064600a6000858152602001908152602001600020600201546106e19190611de3565b6106eb9190611e54565b101561072c576040517f08c379a000000000000000000000000000000000000000000000000000000000815260040161072390611ed1565b60405180910390fd5b6001600a600083815260200190815260200160002060040160006101000a81548160ff02191690831515021790555050565b6000600254905090565b600080610773610fb3565b9050610780858285611054565b61078b8585856110e8565b60019150509392505050565b60006012905090565b600c6020528060005260406000206000915090505481565b6107c0610fcd565b6040518060a00160405280600754815260200182815260200160008152602001600854426107ee9190611ef1565b815260200160001515815250600a6000600754815260200190815260200160002060008201518160000155602082015181600101908161082e91906120d1565b50604082015181600201556060820151816003015560808201518160040160006101000a81548160ff02191690831515021790555090505060076000815480929190610879906121a3565b919050555050565b6000600d60008373ffffffffffffffffffffffffffffffffffffffff1673ffffffffffffffffffffffffffffffffffffffff16815260200190815260200160002060009054906101000a900460ff169050919050565b60008060008373ffffffffffffffffffffffffffffffffffffffff1673ffffffffffffffffffffffffffffffffffffffff168152602001908152602001600020549050919050565b610927610fcd565b61093160006111dc565b565b61093b610fcd565b6001600d60008373ffffffffffffffffffffffffffffffffffffffff1673ffffffffffffffffffffffffffffffffffffffff16815260200190815260200160002060006101000a81548160ff02191690831515021790555050565b61099e610c82565b73ffffffffffffffffffffffffffffffffffffffff163373ffffffffffffffffffffffffffffffffffffffff1614806109dc57506109db33610881565b5b610a1b576040517f08c379a0000000000000000000000000000000000000000000000000000000008152600401610a1290612237565b60405180910390fd5b610a2582826112a2565b5050565b610a31610c82565b73ffffffffffffffffffffffffffffffffffffffff163373ffffffffffffffffffffffffffffffffffffffff161480610a6f5750610a6e33610881565b5b610aae576040517f08c379a0000000000000000000000000000000000000000000000000000000008152600401610aa590612237565b60405180910390fd5b60001515600b60003373ffffffffffffffffffffffffffffffffffffffff1673ffffffffffffffffffffffffffffffffffffffff168152602001908152602001600020600083815260200190815260200160002060009054906101000a900460ff16151514610b52576040517f08c379a0000000000000000000000000000000000000000000000000000000008152600401610b49906122a3565b60405180910390fd5b42600a60008381526020019081526020016000206003015411610baa576040517f08c379a0000000000000000000000000000000000000000000000000000000008152600401610ba19061230f565b60405180910390fd5b6001600b60003373ffffffffffffffffffffffffffffffffffffffff1673ffffffffffffffffffffffffffffffffffffffff168152602001908152602001600020600083815260200190815260200160002060006101000a81548160ff021916908315150217905550600c60003373ffffffffffffffffffffffffffffffffffffffff1673ffffffffffffffffffffffffffffffffffffffff16815260200190815260200160002054600a60008381526020019081526020016000206002016000828254610c789190611ef1565b9250508190555050565b6000600560009054906101000a900473ffffffffffffffffffffffffffffffffffffffff16905090565b600b6020528160005260406000206020528060005260406000206000915091509054906101000a900460ff1681565b606060048054610cea90611cf1565b80601f0160208091040260200160405190810160405280929190818152602001828054610d1690611cf1565b8015610d635780601f10610d3857610100808354040283529160200191610d63565b820191906000526020600020905b815481529060010190602001808311610d4657829003601f168201915b5050505050905090565b600080610d78610fb3565b9050610d858185856110e8565b600191505092915050565b610d98610fcd565b6000600d60008373ffffffffffffffffffffffffffffffffffffffff1673ffffffffffffffffffffffffffffffffffffffff16815260200190815260200160002060006101000a81548160ff02191690831515021790555050565b610dfb610c82565b73ffffffffffffffffffffffffffffffffffffffff163373ffffffffffffffffffffffffffffffffffffffff161480610e395750610e3833610881565b5b610e78576040517f08c379a0000000000000000000000000000000000000000000000000000000008152600401610e6f90612237565b60405180910390fd5b610e828282611324565b5050565b600d6020528060005260406000206000915054906101000a900460ff1681565b6000600160008473ffffffffffffffffffffffffffffffffffffffff1673ffffffffffffffffffffffffffffffffffffffff16815260200190815260200160002060008373ffffffffffffffffffffffffffffffffffffffff1673ffffffffffffffffffffffffffffffffffffffff16815260200190815260200160002054905092915050565b610f35610fcd565b600073ffffffffffffffffffffffffffffffffffffffff168173ffffffffffffffffffffffffffffffffffffffff1603610fa75760006040517f1e4fbdf7000000000000000000000000000000000000000000000000000000008152600401610f9e9190611c67565b60405180910390fd5b610fb0816111dc565b50565b600033905090565b610fc883838360016113a6565b505050565b610fd5610fb3565b73ffffffffffffffffffffffffffffffffffffffff16610ff3610c82565b73ffffffffffffffffffffffffffffffffffffffff161461105257611016610fb3565b6040517f118cdaa70000000000000000000000000000000000000000000000000000000081526004016110499190611c67565b60405180910390fd5b565b60006110608484610ea6565b90507fffffffffffffffffffffffffffffffffffffffffffffffffffffffffffffffff81146110e257818110156110d2578281836040517ffb8f41b20000000000000000000000000000000000000000000000000000000081526004016110c99392919061232f565b60405180910390fd5b6110e1848484840360006113a6565b5b50505050565b600073ffffffffffffffffffffffffffffffffffffffff168373ffffffffffffffffffffffffffffffffffffffff160361115a5760006040517f96c6fd1e0000000000000000000000000000000000000000000000000000000081526004016111519190611c67565b60405180910390fd5b600073ffffffffffffffffffffffffffffffffffffffff168273ffffffffffffffffffffffffffffffffffffffff16036111cc5760006040517fec442f050000000000000000000000000000000000000000000000000000000081526004016111c39190611c67565b60405180910390fd5b6111d783838361157d565b505050565b6000600560009054906101000a900473ffffffffffffffffffffffffffffffffffffffff16905081600560006101000a81548173ffffffffffffffffffffffffffffffffffffffff021916908373ffffffffffffffffffffffffffffffffffffffff1602179055508173ffffffffffffffffffffffffffffffffffffffff168173ffffffffffffffffffffffffffffffffffffffff167f8be0079c531659141344cd1fd0a4f28419497f9722a3daafe3b4186f6b6457e060405160405180910390a35050565b600073ffffffffffffffffffffffffffffffffffffffff168273ffffffffffffffffffffffffffffffffffffffff16036113145760006040517fec442f0500000000000000000000000000000000000000000000000000000000815260040161130b9190611c67565b60405180910390fd5b6113206000838361157d565b5050565b600073ffffffffffffffffffffffffffffffffffffffff168273ffffffffffffffffffffffffffffffffffffffff16036113965760006040517f96c6fd1e00000000000000000000000000000000000000000000000000000000815260040161138d9190611c67565b60405180910390fd5b6113a28260008361157d565b5050565b600073ffffffffffffffffffffffffffffffffffffffff168473ffffffffffffffffffffffffffffffffffffffff16036114185760006040517fe602df0500000000000000000000000000000000000000000000000000000000815260040161140f9190611c67565b60405180910390fd5b600073ffffffffffffffffffffffffffffffffffffffff168373ffffffffffffffffffffffffffffffffffffffff160361148a5760006040517f94280d620000000000000000000000000000000000000000000000000000000081526004016114819190611c67565b60405180910390fd5b81600160008673ffffffffffffffffffffffffffffffffffffffff1673ffffffffffffffffffffffffffffffffffffffff16815260200190815260200160002060008573ffffffffffffffffffffffffffffffffffffffff1673ffffffffffffffffffffffffffffffffffffffff168152602001908152602001600020819055508015611577578273ffffffffffffffffffffffffffffffffffffffff168473ffffffffffffffffffffffffffffffffffffffff167f8c5be1e5ebec7d5bd14f71427d1e84f3dd0314c0f7b2291e5b200ac8c7c3b9258460405161156e9190611a08565b60405180910390a35b50505050565b600073ffffffffffffffffffffffffffffffffffffffff168373ffffffffffffffffffffffffffffffffffffffff16036115cf5780600260008282546115c39190611ef1565b925050819055506116a2565b60008060008573ffffffffffffffffffffffffffffffffffffffff1673ffffffffffffffffffffffffffffffffffffffff1681526020019081526020016000205490508181101561165b578381836040517fe450d38c0000000000000000000000000000000000000000000000000000000081526004016116529392919061232f565b60405180910390fd5b8181036000808673ffffffffffffffffffffffffffffffffffffffff1673ffffffffffffffffffffffffffffffffffffffff16815260200190815260200160002081905550505b600073ffffffffffffffffffffffffffffffffffffffff168273ffffffffffffffffffffffffffffffffffffffff16036116eb5780600260008282540392505081905550611738565b806000808473ffffffffffffffffffffffffffffffffffffffff1673ffffffffffffffffffffffffffffffffffffffff168152602001908152602001600020600082825401925050819055505b8173ffffffffffffffffffffffffffffffffffffffff168373ffffffffffffffffffffffffffffffffffffffff167fddf252ad1be2c89b69c2b068fc378daa952ba7f163c4a11628f55a4df523b3ef836040516117959190611a08565b60405180910390a3505050565b6000604051905090565b600080fd5b600080fd5b6000819050919050565b6117c9816117b6565b81146117d457600080fd5b50565b6000813590506117e6816117c0565b92915050565b600060208284031215611802576118016117ac565b5b6000611810848285016117d7565b91505092915050565b611822816117b6565b82525050565b600081519050919050565b600082825260208201905092915050565b60005b83811015611862578082015181840152602081019050611847565b60008484015250505050565b6000601f19601f8301169050919050565b600061188a82611828565b6118948185611833565b93506118a4818560208601611844565b6118ad8161186e565b840191505092915050565b60008115159050919050565b6118cd816118b8565b82525050565b600060a0820190506118e86000830188611819565b81810360208301526118fa818761187f565b90506119096040830186611819565b6119166060830185611819565b61192360808301846118c4565b9695505050505050565b60006020820190508181036000830152611947818461187f565b905092915050565b600073ffffffffffffffffffffffffffffffffffffffff82169050919050565b600061197a8261194f565b9050919050565b61198a8161196f565b811461199557600080fd5b50565b6000813590506119a781611981565b92915050565b600080604083850312156119c4576119c36117ac565b5b60006119d285828601611998565b92505060206119e3858286016117d7565b9150509250929050565b6000602082019050611a0260008301846118c4565b92915050565b6000602082019050611a1d6000830184611819565b92915050565b600080600060608486031215611a3c57611a3b6117ac565b5b6000611a4a86828701611998565b9350506020611a5b86828701611998565b9250506040611a6c868287016117d7565b9150509250925092565b600060ff82169050919050565b611a8c81611a76565b82525050565b6000602082019050611aa76000830184611a83565b92915050565b600060208284031215611ac357611ac26117ac565b5b6000611ad184828501611998565b91505092915050565b600080fd5b600080fd5b7f4e487b7100000000000000000000000000000000000000000000000000000000600052604160045260246000fd5b611b1c8261186e565b810181811067ffffffffffffffff82111715611b3b57611b3a611ae4565b5b80604052505050565b6000611b4e6117a2565b9050611b5a8282611b13565b919050565b600067ffffffffffffffff821115611b7a57611b79611ae4565b5b611b838261186e565b9050602081019050919050565b82818337600083830152505050565b6000611bb2611bad84611b5f565b611b44565b905082815260208101848484011115611bce57611bcd611adf565b5b611bd9848285611b90565b509392505050565b600082601f830112611bf657611bf5611ada565b5b8135611c06848260208601611b9f565b91505092915050565b600060208284031215611c2557611c246117ac565b5b600082013567ffffffffffffffff811115611c4357611c426117b1565b5b611c4f84828501611be1565b91505092915050565b611c618161196f565b82525050565b6000602082019050611c7c6000830184611c58565b92915050565b60008060408385031215611c9957611c986117ac565b5b6000611ca785828601611998565b9250506020611cb885828601611998565b9150509250929050565b7f4e487b7100000000000000000000000000000000000000000000000000000000600052602260045260246000fd5b60006002820490506001821680611d0957607f821691505b602082108103611d1c57611d1b611cc2565b5b50919050565b7f746869732070726f706f73616c20697320616c7265616479206578656375746560008201527f6400000000000000000000000000000000000000000000000000000000000000602082015250565b6000611d7e602183611833565b9150611d8982611d22565b604082019050919050565b60006020820190508181036000830152611dad81611d71565b9050919050565b7f4e487b7100000000000000000000000000000000000000000000000000000000600052601160045260246000fd5b6000611dee826117b6565b9150611df9836117b6565b9250828202611e07816117b6565b91508282048414831517611e1e57611e1d611db4565b5b5092915050565b7f4e487b7100000000000000000000000000000000000000000000000000000000600052601260045260246000fd5b6000611e5f826117b6565b9150611e6a836117b6565b925082611e7a57611e79611e25565b5b828204905092915050565b7f6d616a6f72697479206e6f7420737570706f7274000000000000000000000000600082015250565b6000611ebb601483611833565b9150611ec682611e85565b602082019050919050565b60006020820190508181036000830152611eea81611eae565b9050919050565b6000611efc826117b6565b9150611f07836117b6565b9250828201905080821115611f1f57611f1e611db4565b5b92915050565b60008190508160005260206000209050919050565b60006020601f8301049050919050565b600082821b905092915050565b600060088302611f877fffffffffffffffffffffffffffffffffffffffffffffffffffffffffffffffff82611f4a565b611f918683611f4a565b95508019841693508086168417925050509392505050565b6000819050919050565b6000611fce611fc9611fc4846117b6565b611fa9565b6117b6565b9050919050565b6000819050919050565b611fe883611fb3565b611ffc611ff482611fd5565b848454611f57565b825550505050565b600090565b612011612004565b61201c818484611fdf565b505050565b5b8181101561204057612035600082612009565b600181019050612022565b5050565b601f8211156120855761205681611f25565b61205f84611f3a565b8101602085101561206e578190505b61208261207a85611f3a565b830182612021565b50505b505050565b600082821c905092915050565b60006120a86000198460080261208a565b1980831691505092915050565b60006120c18383612097565b9150826002028217905092915050565b6120da82611828565b67ffffffffffffffff8111156120f3576120f2611ae4565b5b6120fd8254611cf1565b612108828285612044565b600060209050601f83116001811461213b5760008415612129578287015190505b61213385826120b5565b86555061219b565b601f19841661214986611f25565b60005b828110156121715784890151825560018201915060208501945060208101905061214c565b8683101561218e578489015161218a601f891682612097565b8355505b6001600288020188555050505b505050505050565b60006121ae826117b6565b91507fffffffffffffffffffffffffffffffffffffffffffffffffffffffffffffffff82036121e0576121df611db4565b5b600182019050919050565b7f796f7520617265206e6f7420617574686f726973656420000000000000000000600082015250565b6000612221601783611833565b915061222c826121eb565b602082019050919050565b6000602082019050818103600083015261225081612214565b9050919050565b7f796f75206861766520616c65726561647920766f746564000000000000000000600082015250565b600061228d601783611833565b915061229882612257565b602082019050919050565b600060208201905081810360008301526122bc81612280565b9050919050565b7f766f74696e6720656e6465640000000000000000000000000000000000000000600082015250565b60006122f9600c83611833565b9150612304826122c3565b602082019050919050565b60006020820190508181036000830152612328816122ec565b9050919050565b60006060820190506123446000830186611c58565b6123516020830185611819565b61235e6040830184611819565b94935050505056fea264697066735822122013e9ead7c6b7a97a8b9c47e3c4c632881931bcb221acc526e9bfe088b9f0a52364736f6c63430008140033",
  "linkReferences": {},
  "deployedLinkReferences": {}
}